{
  "contractName": "FarmToken",
  "abi": [
    {
      "inputs": [
        {
          "internalType": "address",
          "name": "_token",
          "type": "address"
        }
      ],
      "stateMutability": "nonpayable",
      "type": "constructor"
    },
    {
      "anonymous": false,
      "inputs": [
        {
          "indexed": true,
          "internalType": "address",
          "name": "owner",
          "type": "address"
        },
        {
          "indexed": true,
          "internalType": "address",
          "name": "spender",
          "type": "address"
        },
        {
          "indexed": false,
          "internalType": "uint256",
          "name": "value",
          "type": "uint256"
        }
      ],
      "name": "Approval",
      "type": "event"
    },
    {
      "anonymous": false,
      "inputs": [
        {
          "indexed": true,
          "internalType": "address",
          "name": "from",
          "type": "address"
        },
        {
          "indexed": true,
          "internalType": "address",
          "name": "to",
          "type": "address"
        },
        {
          "indexed": false,
          "internalType": "uint256",
          "name": "value",
          "type": "uint256"
        }
      ],
      "name": "Transfer",
      "type": "event"
    },
    {
      "inputs": [
        {
          "internalType": "address",
          "name": "owner",
          "type": "address"
        },
        {
          "internalType": "address",
          "name": "spender",
          "type": "address"
        }
      ],
      "name": "allowance",
      "outputs": [
        {
          "internalType": "uint256",
          "name": "",
          "type": "uint256"
        }
      ],
      "stateMutability": "view",
      "type": "function",
      "constant": true
    },
    {
      "inputs": [
        {
          "internalType": "address",
          "name": "spender",
          "type": "address"
        },
        {
          "internalType": "uint256",
          "name": "amount",
          "type": "uint256"
        }
      ],
      "name": "approve",
      "outputs": [
        {
          "internalType": "bool",
          "name": "",
          "type": "bool"
        }
      ],
      "stateMutability": "nonpayable",
      "type": "function"
    },
    {
      "inputs": [
        {
          "internalType": "address",
          "name": "account",
          "type": "address"
        }
      ],
      "name": "balanceOf",
      "outputs": [
        {
          "internalType": "uint256",
          "name": "",
          "type": "uint256"
        }
      ],
      "stateMutability": "view",
      "type": "function",
      "constant": true
    },
    {
      "inputs": [],
      "name": "decimals",
      "outputs": [
        {
          "internalType": "uint8",
          "name": "",
          "type": "uint8"
        }
      ],
      "stateMutability": "view",
      "type": "function",
      "constant": true
    },
    {
      "inputs": [
        {
          "internalType": "address",
          "name": "spender",
          "type": "address"
        },
        {
          "internalType": "uint256",
          "name": "subtractedValue",
          "type": "uint256"
        }
      ],
      "name": "decreaseAllowance",
      "outputs": [
        {
          "internalType": "bool",
          "name": "",
          "type": "bool"
        }
      ],
      "stateMutability": "nonpayable",
      "type": "function"
    },
    {
      "inputs": [
        {
          "internalType": "address",
          "name": "spender",
          "type": "address"
        },
        {
          "internalType": "uint256",
          "name": "addedValue",
          "type": "uint256"
        }
      ],
      "name": "increaseAllowance",
      "outputs": [
        {
          "internalType": "bool",
          "name": "",
          "type": "bool"
        }
      ],
      "stateMutability": "nonpayable",
      "type": "function"
    },
    {
      "inputs": [],
      "name": "name",
      "outputs": [
        {
          "internalType": "string",
          "name": "",
          "type": "string"
        }
      ],
      "stateMutability": "view",
      "type": "function",
      "constant": true
    },
    {
      "inputs": [],
      "name": "symbol",
      "outputs": [
        {
          "internalType": "string",
          "name": "",
          "type": "string"
        }
      ],
      "stateMutability": "view",
      "type": "function",
      "constant": true
    },
    {
      "inputs": [],
      "name": "token",
      "outputs": [
        {
          "internalType": "contract IERC20",
          "name": "",
          "type": "address"
        }
      ],
      "stateMutability": "view",
      "type": "function",
      "constant": true
    },
    {
      "inputs": [],
      "name": "totalSupply",
      "outputs": [
        {
          "internalType": "uint256",
          "name": "",
          "type": "uint256"
        }
      ],
      "stateMutability": "view",
      "type": "function",
      "constant": true
    },
    {
      "inputs": [
        {
          "internalType": "address",
          "name": "recipient",
          "type": "address"
        },
        {
          "internalType": "uint256",
          "name": "amount",
          "type": "uint256"
        }
      ],
      "name": "transfer",
      "outputs": [
        {
          "internalType": "bool",
          "name": "",
          "type": "bool"
        }
      ],
      "stateMutability": "nonpayable",
      "type": "function"
    },
    {
      "inputs": [
        {
          "internalType": "address",
          "name": "sender",
          "type": "address"
        },
        {
          "internalType": "address",
          "name": "recipient",
          "type": "address"
        },
        {
          "internalType": "uint256",
          "name": "amount",
          "type": "uint256"
        }
      ],
      "name": "transferFrom",
      "outputs": [
        {
          "internalType": "bool",
          "name": "",
          "type": "bool"
        }
      ],
      "stateMutability": "nonpayable",
      "type": "function"
    },
    {
      "inputs": [],
      "name": "balance",
      "outputs": [
        {
          "internalType": "uint256",
          "name": "",
          "type": "uint256"
        }
      ],
      "stateMutability": "view",
      "type": "function",
      "constant": true
    },
    {
      "inputs": [
        {
          "internalType": "uint256",
          "name": "_amount",
          "type": "uint256"
        }
      ],
      "name": "deposit",
      "outputs": [],
      "stateMutability": "nonpayable",
      "type": "function"
    },
    {
      "inputs": [
        {
          "internalType": "uint256",
          "name": "_amount",
          "type": "uint256"
        }
      ],
      "name": "withdraw",
      "outputs": [],
      "stateMutability": "nonpayable",
      "type": "function"
    }
  ],
  "bytecode": "0x60806040523480156200001157600080fd5b506040516200258c3803806200258c8339818101604052810190620000379190620001e6565b6040518060400160405280600981526020017f4661726d546f6b656e00000000000000000000000000000000000000000000008152506040518060400160405280600381526020017f46524d00000000000000000000000000000000000000000000000000000000008152508160039080519060200190620000bb9291906200011f565b508060049080519060200190620000d49291906200011f565b50505080600560006101000a81548173ffffffffffffffffffffffffffffffffffffffff021916908373ffffffffffffffffffffffffffffffffffffffff16021790555050620002d0565b8280546200012d906200024c565b90600052602060002090601f0160209004810192826200015157600085556200019d565b82601f106200016c57805160ff19168380011785556200019d565b828001600101855582156200019d579182015b828111156200019c5782518255916020019190600101906200017f565b5b509050620001ac9190620001b0565b5090565b5b80821115620001cb576000816000905550600101620001b1565b5090565b600081519050620001e081620002b6565b92915050565b600060208284031215620001ff57620001fe620002b1565b5b60006200020f84828501620001cf565b91505092915050565b600062000225826200022c565b9050919050565b600073ffffffffffffffffffffffffffffffffffffffff82169050919050565b600060028204905060018216806200026557607f821691505b602082108114156200027c576200027b62000282565b5b50919050565b7f4e487b7100000000000000000000000000000000000000000000000000000000600052602260045260246000fd5b600080fd5b620002c18162000218565b8114620002cd57600080fd5b50565b6122ac80620002e06000396000f3fe608060405234801561001057600080fd5b50600436106100f55760003560e01c806370a0823111610097578063b69ef8a811610066578063b69ef8a8146102ae578063b6b55f25146102cc578063dd62ed3e146102e8578063fc0c546a14610318576100f5565b806370a082311461020057806395d89b4114610230578063a457c2d71461024e578063a9059cbb1461027e576100f5565b806323b872dd116100d357806323b872dd146101665780632e1a7d4d14610196578063313ce567146101b257806339509351146101d0576100f5565b806306fdde03146100fa578063095ea7b31461011857806318160ddd14610148575b600080fd5b610102610336565b60405161010f9190611a2b565b60405180910390f35b610132600480360381019061012d91906115fd565b6103c8565b60405161013f91906119f5565b60405180910390f35b6101506103e6565b60405161015d9190611c0d565b60405180910390f35b610180600480360381019061017b91906115aa565b6103f0565b60405161018d91906119f5565b60405180910390f35b6101b060048036038101906101ab919061166a565b6104e8565b005b6101ba610542565b6040516101c79190611c28565b60405180910390f35b6101ea60048036038101906101e591906115fd565b61054b565b6040516101f791906119f5565b60405180910390f35b61021a6004803603810190610215919061153d565b6105f7565b6040516102279190611c0d565b60405180910390f35b61023861063f565b6040516102459190611a2b565b60405180910390f35b610268600480360381019061026391906115fd565b6106d1565b60405161027591906119f5565b60405180910390f35b610298600480360381019061029391906115fd565b6107bc565b6040516102a591906119f5565b60405180910390f35b6102b66107da565b6040516102c39190611c0d565b60405180910390f35b6102e660048036038101906102e1919061166a565b61088c565b005b61030260048036038101906102fd919061156a565b61092b565b60405161030f9190611c0d565b60405180910390f35b6103206109b2565b60405161032d9190611a10565b60405180910390f35b60606003805461034590611dab565b80601f016020809104026020016040519081016040528092919081815260200182805461037190611dab565b80156103be5780601f10610393576101008083540402835291602001916103be565b820191906000526020600020905b8154815290600101906020018083116103a157829003601f168201915b5050505050905090565b60006103dc6103d56109d8565b84846109e0565b6001905092915050565b6000600254905090565b60006103fd848484610bab565b6000600160008673ffffffffffffffffffffffffffffffffffffffff1673ffffffffffffffffffffffffffffffffffffffff16815260200190815260200160002060006104486109d8565b73ffffffffffffffffffffffffffffffffffffffff1673ffffffffffffffffffffffffffffffffffffffff168152602001908152602001600020549050828110156104c8576040517f08c379a00000000000000000000000000000000000000000000000000000000081526004016104bf90611aed565b60405180910390fd5b6104dc856104d46109d8565b8584036109e0565b60019150509392505050565b6104f23382610e2c565b61053f3382600560009054906101000a900473ffffffffffffffffffffffffffffffffffffffff1673ffffffffffffffffffffffffffffffffffffffff166110039092919063ffffffff16565b50565b60006012905090565b60006105ed6105586109d8565b8484600160006105666109d8565b73ffffffffffffffffffffffffffffffffffffffff1673ffffffffffffffffffffffffffffffffffffffff16815260200190815260200160002060008873ffffffffffffffffffffffffffffffffffffffff1673ffffffffffffffffffffffffffffffffffffffff168152602001908152602001600020546105e89190611c75565b6109e0565b6001905092915050565b60008060008373ffffffffffffffffffffffffffffffffffffffff1673ffffffffffffffffffffffffffffffffffffffff168152602001908152602001600020549050919050565b60606004805461064e90611dab565b80601f016020809104026020016040519081016040528092919081815260200182805461067a90611dab565b80156106c75780601f1061069c576101008083540402835291602001916106c7565b820191906000526020600020905b8154815290600101906020018083116106aa57829003601f168201915b5050505050905090565b600080600160006106e06109d8565b73ffffffffffffffffffffffffffffffffffffffff1673ffffffffffffffffffffffffffffffffffffffff16815260200190815260200160002060008573ffffffffffffffffffffffffffffffffffffffff1673ffffffffffffffffffffffffffffffffffffffff1681526020019081526020016000205490508281101561079d576040517f08c379a000000000000000000000000000000000000000000000000000000000815260040161079490611bcd565b60405180910390fd5b6107b16107a86109d8565b858584036109e0565b600191505092915050565b60006107d06107c96109d8565b8484610bab565b6001905092915050565b6000600560009054906101000a900473ffffffffffffffffffffffffffffffffffffffff1673ffffffffffffffffffffffffffffffffffffffff166370a08231306040518263ffffffff1660e01b8152600401610837919061197a565b60206040518083038186803b15801561084f57600080fd5b505afa158015610863573d6000803e3d6000fd5b505050506040513d601f19601f820116820180604052508101906108879190611697565b905090565b600081116108cf576040517f08c379a00000000000000000000000000000000000000000000000000000000081526004016108c690611b8d565b60405180910390fd5b61091e333083600560009054906101000a900473ffffffffffffffffffffffffffffffffffffffff1673ffffffffffffffffffffffffffffffffffffffff16611089909392919063ffffffff16565b6109283382611112565b50565b6000600160008473ffffffffffffffffffffffffffffffffffffffff1673ffffffffffffffffffffffffffffffffffffffff16815260200190815260200160002060008373ffffffffffffffffffffffffffffffffffffffff1673ffffffffffffffffffffffffffffffffffffffff16815260200190815260200160002054905092915050565b600560009054906101000a900473ffffffffffffffffffffffffffffffffffffffff1681565b600033905090565b600073ffffffffffffffffffffffffffffffffffffffff168373ffffffffffffffffffffffffffffffffffffffff161415610a50576040517f08c379a0000000000000000000000000000000000000000000000000000000008152600401610a4790611b4d565b60405180910390fd5b600073ffffffffffffffffffffffffffffffffffffffff168273ffffffffffffffffffffffffffffffffffffffff161415610ac0576040517f08c379a0000000000000000000000000000000000000000000000000000000008152600401610ab790611a8d565b60405180910390fd5b80600160008573ffffffffffffffffffffffffffffffffffffffff1673ffffffffffffffffffffffffffffffffffffffff16815260200190815260200160002060008473ffffffffffffffffffffffffffffffffffffffff1673ffffffffffffffffffffffffffffffffffffffff168152602001908152602001600020819055508173ffffffffffffffffffffffffffffffffffffffff168373ffffffffffffffffffffffffffffffffffffffff167f8c5be1e5ebec7d5bd14f71427d1e84f3dd0314c0f7b2291e5b200ac8c7c3b92583604051610b9e9190611c0d565b60405180910390a3505050565b600073ffffffffffffffffffffffffffffffffffffffff168373ffffffffffffffffffffffffffffffffffffffff161415610c1b576040517f08c379a0000000000000000000000000000000000000000000000000000000008152600401610c1290611b2d565b60405180910390fd5b600073ffffffffffffffffffffffffffffffffffffffff168273ffffffffffffffffffffffffffffffffffffffff161415610c8b576040517f08c379a0000000000000000000000000000000000000000000000000000000008152600401610c8290611a4d565b60405180910390fd5b610c96838383611272565b60008060008573ffffffffffffffffffffffffffffffffffffffff1673ffffffffffffffffffffffffffffffffffffffff16815260200190815260200160002054905081811015610d1c576040517f08c379a0000000000000000000000000000000000000000000000000000000008152600401610d1390611aad565b60405180910390fd5b8181036000808673ffffffffffffffffffffffffffffffffffffffff1673ffffffffffffffffffffffffffffffffffffffff16815260200190815260200160002081905550816000808573ffffffffffffffffffffffffffffffffffffffff1673ffffffffffffffffffffffffffffffffffffffff1681526020019081526020016000206000828254610daf9190611c75565b925050819055508273ffffffffffffffffffffffffffffffffffffffff168473ffffffffffffffffffffffffffffffffffffffff167fddf252ad1be2c89b69c2b068fc378daa952ba7f163c4a11628f55a4df523b3ef84604051610e139190611c0d565b60405180910390a3610e26848484611277565b50505050565b600073ffffffffffffffffffffffffffffffffffffffff168273ffffffffffffffffffffffffffffffffffffffff161415610e9c576040517f08c379a0000000000000000000000000000000000000000000000000000000008152600401610e9390611b0d565b60405180910390fd5b610ea882600083611272565b60008060008473ffffffffffffffffffffffffffffffffffffffff1673ffffffffffffffffffffffffffffffffffffffff16815260200190815260200160002054905081811015610f2e576040517f08c379a0000000000000000000000000000000000000000000000000000000008152600401610f2590611a6d565b60405180910390fd5b8181036000808573ffffffffffffffffffffffffffffffffffffffff1673ffffffffffffffffffffffffffffffffffffffff168152602001908152602001600020819055508160026000828254610f859190611ccb565b92505081905550600073ffffffffffffffffffffffffffffffffffffffff168373ffffffffffffffffffffffffffffffffffffffff167fddf252ad1be2c89b69c2b068fc378daa952ba7f163c4a11628f55a4df523b3ef84604051610fea9190611c0d565b60405180910390a3610ffe83600084611277565b505050565b6110848363a9059cbb60e01b84846040516024016110229291906119cc565b604051602081830303815290604052907bffffffffffffffffffffffffffffffffffffffffffffffffffffffff19166020820180517bffffffffffffffffffffffffffffffffffffffffffffffffffffffff838183161783525050505061127c565b505050565b61110c846323b872dd60e01b8585856040516024016110aa93929190611995565b604051602081830303815290604052907bffffffffffffffffffffffffffffffffffffffffffffffffffffffff19166020820180517bffffffffffffffffffffffffffffffffffffffffffffffffffffffff838183161783525050505061127c565b50505050565b600073ffffffffffffffffffffffffffffffffffffffff168273ffffffffffffffffffffffffffffffffffffffff161415611182576040517f08c379a000000000000000000000000000000000000000000000000000000000815260040161117990611bed565b60405180910390fd5b61118e60008383611272565b80600260008282546111a09190611c75565b92505081905550806000808473ffffffffffffffffffffffffffffffffffffffff1673ffffffffffffffffffffffffffffffffffffffff16815260200190815260200160002060008282546111f59190611c75565b925050819055508173ffffffffffffffffffffffffffffffffffffffff16600073ffffffffffffffffffffffffffffffffffffffff167fddf252ad1be2c89b69c2b068fc378daa952ba7f163c4a11628f55a4df523b3ef8360405161125a9190611c0d565b60405180910390a361126e60008383611277565b5050565b505050565b505050565b60006112de826040518060400160405280602081526020017f5361666545524332303a206c6f772d6c6576656c2063616c6c206661696c65648152508573ffffffffffffffffffffffffffffffffffffffff166113439092919063ffffffff16565b905060008151111561133e57808060200190518101906112fe919061163d565b61133d576040517f08c379a000000000000000000000000000000000000000000000000000000000815260040161133490611bad565b60405180910390fd5b5b505050565b6060611352848460008561135b565b90509392505050565b6060824710156113a0576040517f08c379a000000000000000000000000000000000000000000000000000000000815260040161139790611acd565b60405180910390fd5b6113a98561146f565b6113e8576040517f08c379a00000000000000000000000000000000000000000000000000000000081526004016113df90611b6d565b60405180910390fd5b6000808673ffffffffffffffffffffffffffffffffffffffff1685876040516114119190611963565b60006040518083038185875af1925050503d806000811461144e576040519150601f19603f3d011682016040523d82523d6000602084013e611453565b606091505b5091509150611463828286611482565b92505050949350505050565b600080823b905060008111915050919050565b60608315611492578290506114e2565b6000835111156114a55782518084602001fd5b816040517f08c379a00000000000000000000000000000000000000000000000000000000081526004016114d99190611a2b565b60405180910390fd5b9392505050565b6000813590506114f881612231565b92915050565b60008151905061150d81612248565b92915050565b6000813590506115228161225f565b92915050565b6000815190506115378161225f565b92915050565b60006020828403121561155357611552611e3b565b5b6000611561848285016114e9565b91505092915050565b6000806040838503121561158157611580611e3b565b5b600061158f858286016114e9565b92505060206115a0858286016114e9565b9150509250929050565b6000806000606084860312156115c3576115c2611e3b565b5b60006115d1868287016114e9565b93505060206115e2868287016114e9565b92505060406115f386828701611513565b9150509250925092565b6000806040838503121561161457611613611e3b565b5b6000611622858286016114e9565b925050602061163385828601611513565b9150509250929050565b60006020828403121561165357611652611e3b565b5b6000611661848285016114fe565b91505092915050565b6000602082840312156116805761167f611e3b565b5b600061168e84828501611513565b91505092915050565b6000602082840312156116ad576116ac611e3b565b5b60006116bb84828501611528565b91505092915050565b6116cd81611cff565b82525050565b6116dc81611d11565b82525050565b60006116ed82611c43565b6116f78185611c59565b9350611707818560208601611d78565b80840191505092915050565b61171c81611d54565b82525050565b600061172d82611c4e565b6117378185611c64565b9350611747818560208601611d78565b61175081611e40565b840191505092915050565b6000611768602383611c64565b915061177382611e51565b604082019050919050565b600061178b602283611c64565b915061179682611ea0565b604082019050919050565b60006117ae602283611c64565b91506117b982611eef565b604082019050919050565b60006117d1602683611c64565b91506117dc82611f3e565b604082019050919050565b60006117f4602683611c64565b91506117ff82611f8d565b604082019050919050565b6000611817602883611c64565b915061182282611fdc565b604082019050919050565b600061183a602183611c64565b91506118458261202b565b604082019050919050565b600061185d602583611c64565b91506118688261207a565b604082019050919050565b6000611880602483611c64565b915061188b826120c9565b604082019050919050565b60006118a3601d83611c64565b91506118ae82612118565b602082019050919050565b60006118c6601283611c64565b91506118d182612141565b602082019050919050565b60006118e9602a83611c64565b91506118f48261216a565b604082019050919050565b600061190c602583611c64565b9150611917826121b9565b604082019050919050565b600061192f601f83611c64565b915061193a82612208565b602082019050919050565b61194e81611d3d565b82525050565b61195d81611d47565b82525050565b600061196f82846116e2565b915081905092915050565b600060208201905061198f60008301846116c4565b92915050565b60006060820190506119aa60008301866116c4565b6119b760208301856116c4565b6119c46040830184611945565b949350505050565b60006040820190506119e160008301856116c4565b6119ee6020830184611945565b9392505050565b6000602082019050611a0a60008301846116d3565b92915050565b6000602082019050611a256000830184611713565b92915050565b60006020820190508181036000830152611a458184611722565b905092915050565b60006020820190508181036000830152611a668161175b565b9050919050565b60006020820190508181036000830152611a868161177e565b9050919050565b60006020820190508181036000830152611aa6816117a1565b9050919050565b60006020820190508181036000830152611ac6816117c4565b9050919050565b60006020820190508181036000830152611ae6816117e7565b9050919050565b60006020820190508181036000830152611b068161180a565b9050919050565b60006020820190508181036000830152611b268161182d565b9050919050565b60006020820190508181036000830152611b4681611850565b9050919050565b60006020820190508181036000830152611b6681611873565b9050919050565b60006020820190508181036000830152611b8681611896565b9050919050565b60006020820190508181036000830152611ba6816118b9565b9050919050565b60006020820190508181036000830152611bc6816118dc565b9050919050565b60006020820190508181036000830152611be6816118ff565b9050919050565b60006020820190508181036000830152611c0681611922565b9050919050565b6000602082019050611c226000830184611945565b92915050565b6000602082019050611c3d6000830184611954565b92915050565b600081519050919050565b600081519050919050565b600081905092915050565b600082825260208201905092915050565b6000611c8082611d3d565b9150611c8b83611d3d565b9250827fffffffffffffffffffffffffffffffffffffffffffffffffffffffffffffffff03821115611cc057611cbf611ddd565b5b828201905092915050565b6000611cd682611d3d565b9150611ce183611d3d565b925082821015611cf457611cf3611ddd565b5b828203905092915050565b6000611d0a82611d1d565b9050919050565b60008115159050919050565b600073ffffffffffffffffffffffffffffffffffffffff82169050919050565b6000819050919050565b600060ff82169050919050565b6000611d5f82611d66565b9050919050565b6000611d7182611d1d565b9050919050565b60005b83811015611d96578082015181840152602081019050611d7b565b83811115611da5576000848401525b50505050565b60006002820490506001821680611dc357607f821691505b60208210811415611dd757611dd6611e0c565b5b50919050565b7f4e487b7100000000000000000000000000000000000000000000000000000000600052601160045260246000fd5b7f4e487b7100000000000000000000000000000000000000000000000000000000600052602260045260246000fd5b600080fd5b6000601f19601f8301169050919050565b7f45524332303a207472616e7366657220746f20746865207a65726f206164647260008201527f6573730000000000000000000000000000000000000000000000000000000000602082015250565b7f45524332303a206275726e20616d6f756e7420657863656564732062616c616e60008201527f6365000000000000000000000000000000000000000000000000000000000000602082015250565b7f45524332303a20617070726f766520746f20746865207a65726f20616464726560008201527f7373000000000000000000000000000000000000000000000000000000000000602082015250565b7f45524332303a207472616e7366657220616d6f756e742065786365656473206260008201527f616c616e63650000000000000000000000000000000000000000000000000000602082015250565b7f416464726573733a20696e73756666696369656e742062616c616e636520666f60008201527f722063616c6c0000000000000000000000000000000000000000000000000000602082015250565b7f45524332303a207472616e7366657220616d6f756e742065786365656473206160008201527f6c6c6f77616e6365000000000000000000000000000000000000000000000000602082015250565b7f45524332303a206275726e2066726f6d20746865207a65726f2061646472657360008201527f7300000000000000000000000000000000000000000000000000000000000000602082015250565b7f45524332303a207472616e736665722066726f6d20746865207a65726f20616460008201527f6472657373000000000000000000000000000000000000000000000000000000602082015250565b7f45524332303a20617070726f76652066726f6d20746865207a65726f2061646460008201527f7265737300000000000000000000000000000000000000000000000000000000602082015250565b7f416464726573733a2063616c6c20746f206e6f6e2d636f6e7472616374000000600082015250565b7f616d6f756e742063616e6e6f7420626520300000000000000000000000000000600082015250565b7f5361666545524332303a204552433230206f7065726174696f6e20646964206e60008201527f6f74207375636365656400000000000000000000000000000000000000000000602082015250565b7f45524332303a2064656372656173656420616c6c6f77616e63652062656c6f7760008201527f207a65726f000000000000000000000000000000000000000000000000000000602082015250565b7f45524332303a206d696e7420746f20746865207a65726f206164647265737300600082015250565b61223a81611cff565b811461224557600080fd5b50565b61225181611d11565b811461225c57600080fd5b50565b61226881611d3d565b811461227357600080fd5b5056fea26469706673582212209df2da89fdbe2c72571e32c22b4004ed830d573b3478411d2b7550cfb6e88c2464736f6c63430008060033",
  "immutableReferences": {},
  "source": "// SPDX-License-Identifier: MIT\npragma solidity ^0.8.0;\n\nimport \"@openzeppelin/contracts/token/ERC20/IERC20.sol\";\nimport \"@openzeppelin/contracts/utils/Address.sol\";\nimport \"@openzeppelin/contracts/token/ERC20/utils/SafeERC20.sol\";\nimport \"@openzeppelin/contracts/token/ERC20/ERC20.sol\";\n\ncontract FarmToken is ERC20 {\n    using Address for address;\n    using SafeERC20 for IERC20;\n\n    IERC20 public token;\n\n    constructor(address _token)\n        public\n        ERC20(\"FarmToken\", \"FRM\")\n    {\n        token = IERC20(_token);\n    }\n\nfunction balance() public view returns (uint256) {\n    return token.balanceOf(address(this));\n}\n\nfunction deposit(uint256 _amount) public {\n    require(_amount > 0, \"amount cannot be 0\");\n    token.safeTransferFrom(msg.sender, address(this), _amount);\n    _mint(msg.sender, _amount);\n}\n\nfunction withdraw(uint256 _amount) public {\n    _burn(msg.sender, _amount);\n    token.safeTransfer(msg.sender, _amount);\n}\n}",
  "sourcePath": "/Users/manav/Desktop/DeFi-Blockchain/contracts/FarmToken.sol",
  "compiler": {
    "name": "solc",
    "version": "0.8.6+commit.11564f7e.Emscripten.clang"
  },
  "schemaVersion": "3.4.2",
  "updatedAt": "2021-08-08T06:58:09.113Z",
  "networkType": "ethereum",
  "devdoc": {
    "kind": "dev",
    "methods": {
      "allowance(address,address)": {
        "details": "See {IERC20-allowance}."
      },
      "approve(address,uint256)": {
        "details": "See {IERC20-approve}. Requirements: - `spender` cannot be the zero address."
      },
      "balanceOf(address)": {
        "details": "See {IERC20-balanceOf}."
      },
      "decimals()": {
        "details": "Returns the number of decimals used to get its user representation. For example, if `decimals` equals `2`, a balance of `505` tokens should be displayed to a user as `5,05` (`505 / 10 ** 2`). Tokens usually opt for a value of 18, imitating the relationship between Ether and Wei. This is the value {ERC20} uses, unless this function is overridden; NOTE: This information is only used for _display_ purposes: it in no way affects any of the arithmetic of the contract, including {IERC20-balanceOf} and {IERC20-transfer}."
      },
      "decreaseAllowance(address,uint256)": {
        "details": "Atomically decreases the allowance granted to `spender` by the caller. This is an alternative to {approve} that can be used as a mitigation for problems described in {IERC20-approve}. Emits an {Approval} event indicating the updated allowance. Requirements: - `spender` cannot be the zero address. - `spender` must have allowance for the caller of at least `subtractedValue`."
      },
      "increaseAllowance(address,uint256)": {
        "details": "Atomically increases the allowance granted to `spender` by the caller. This is an alternative to {approve} that can be used as a mitigation for problems described in {IERC20-approve}. Emits an {Approval} event indicating the updated allowance. Requirements: - `spender` cannot be the zero address."
      },
      "name()": {
        "details": "Returns the name of the token."
      },
      "symbol()": {
        "details": "Returns the symbol of the token, usually a shorter version of the name."
      },
      "totalSupply()": {
        "details": "See {IERC20-totalSupply}."
      },
      "transfer(address,uint256)": {
        "details": "See {IERC20-transfer}. Requirements: - `recipient` cannot be the zero address. - the caller must have a balance of at least `amount`."
      },
      "transferFrom(address,address,uint256)": {
        "details": "See {IERC20-transferFrom}. Emits an {Approval} event indicating the updated allowance. This is not required by the EIP. See the note at the beginning of {ERC20}. Requirements: - `sender` and `recipient` cannot be the zero address. - `sender` must have a balance of at least `amount`. - the caller must have allowance for ``sender``'s tokens of at least `amount`."
      }
    },
    "version": 1
  },
  "userdoc": {
    "kind": "user",
    "methods": {},
    "version": 1
  }
}